:020000040800F2
:1000000060090020450100084D4F0008ED3D000843
:10001000B14E0008750C0008C15100080000000036
:100020000000000000000000000000002150000857
:10003000850C0008000000001D5000082550000835
:100040005F0100085F0100085F0100085F01000810
:100050005F0100085F0100085F0100085F01000800
:100060005F0100085F0100085F0100085F010008F0
:100070005F0100085F0100085F0100085F010008E0
:100080005F010008790C00085F0100085F010008AB
:100090005F0100085F0100085F0100085F010008C0
:1000A0002D500008395000085F0100085F0100086A
:1000B0005F0100085F010008455000085F0100086B
:1000C0005F0100085F0100085F0100085F01000890
:1000D0005F010008A9510008B55100085F01000840
:1000E000F50C00085F0100085F0100085F010008CF
:1000F0005F0100085F0100085F0100085F01000860
:100100005F0100085F0100085F0100085F0100084F
:100110005F0100085F0100085F0100085F0100083F
:100120005F0100085F0100085F0100085F0100082F
:10013000DFF80CD000F00AFD00480047BD60000861
:10014000600900200648804706480047FEE7FEE7B2
:10015000FEE7FEE7FEE7FEE7FEE7FEE7FEE7FEE777
:1001600029500008310100082DE9F0410024061B48
:10017000254671F1000605DA01240027D0EB0700BF
:1001800067EB0101161E73F1000605DA0027D2EBBA
:100190000702012567EB030300F083FB86460E464A
:1001A00017469C46AC4204D00025D0EB050E65EB0B
:1001B000010624B10020D2EB000760EB030C70466F
:1001C00031463A466346BDE8F08110B5431A934282
:1001D00009D28318881803E010F8011D03F8011DE7
:1001E000521EF9D210BD40EA01039B0703D009E07B
:1001F00008C9121F08C0042AFAD203E011F8013B13
:1002000000F8013B521EF9D210BD30B50446002063
:10021000034600E05B1C934203D2E05CCD5C401BD4
:10022000F8D030BDF0B480EA0102D40F4200B2EB46
:10023000410F02D20246084611464A0042D0C30D81
:10024000DDB2C1F3C752AD1A202D35DAC1F3160164
:1002500041F4000204B15242C5F1200602FA06F14F
:100260002A411044B3EBD05F23D0C4B1012DA0EBE1
:10027000C35009DCF0BC4FF0004202EAC352DBB2CB
:1002800000F5000000F078BB400000F1807000EB4A
:10029000C350A0F1807040EAD170490009E04908DC
:1002A00041EAC071A0EBC35000F50000400800EB2C
:1002B000C350F0BC00F057BB6142012202EB410188
:1002C000001BF6E7F0BC704781F00041AAE780F020
:1002D0000040A7E780EA010210B502F000434000A9
:1002E00022D04A001FD0010E01EB1261C0F356006C
:1002F000C2F3560240F4000042F40002A0FB0220C8
:1003000000047F39140400D0401C50EA124001D48C
:100310004000491EC2B20C0604EBD010401C40083D
:10032000802A02D003E0002010BD20F00100002947
:1003300000DA0020184310BD30B480EA010202F058
:10034000004530F0004221F0004013D090B1C30DC1
:10035000D40DC2F31601C0F31600E41A41F40001F3
:1003600040F400027D34914201D3641C00E0490056
:10037000002C02DA30BC002070474FF4000000234C
:10038000914201D3891A034340084FEA4101F7D152
:1003900051B1914202D14FF0004105E002D24FF03D
:1003A000010101E06FF0010103EBC450284430BCAF
:1003B00000F0D9BA2DE9FE4F804681EA0300C00F54
:1003C0000C46009021F0004123F00045B8EB0200FC
:1003D000A94105D24046214690461C460B4602469E
:1003E00023F00040104347D0270DC7F30A00C3F3A2
:1003F0000A510290401A019040286BDAC3F31300AF
:1004000040F4801B0098924620B10023D2EB030AEF
:1004100063EB0B0B01985946C0F14002504600F0C7
:1004200071FA06460D4650465946019A00F089FA7F
:1004300010EB08006141002487EA115284EAE77357
:100440001A4340D0009A62B3019A012A4FEA075238
:1004500015DC001B61EB02014FF0004202EA07527B
:10046000CDE90042001C41F5801132462B4600F0D8
:10047000C0FA03B0BDE8F08F40462146F9E7001B03
:1004800061EB0201001C41F5801300185B4120184C
:10049000A2F5001747EB030140EAD570B6196D418C
:1004A00011E06D084FEA360645EAC0754FEA07527B
:1004B000001B61EB0201001C41F5801149084FEA65
:1004C00030000019514132462B4603B0BDE8F04FD1
:1004D00000F080BA0098012240000023D0EB020215
:1004E00063EBE073009821464FEAE074B8EB00003C
:1004F00061EB0401E9E783F000435BE781F0004131
:1005000058E72DE9FE4F81EA030404F0004421F08E
:10051000004100944FF0000B23F0004350EA010427
:100520005ED052EA03045BD0C3F30A54C1F30A5508
:100530002C44A4F2F3340194A0FB0254C1F3130140
:1005400041F48011C3F3130343F4801301FB02440D
:1005500000FB034E840A970A44EA815447EA835712
:10056000A4FB076802958D0A05FB07854FEA932CCB
:1005700004FB0C542705029D4FEA065847EA16373C
:10058000B5EB08056EEB070C870E920E47EA811754
:1005900042EA8312A7FB0201B6EB0B0164EB0004F5
:1005A0002B0D43EA0C335E1844EB1C50DA465146DF
:1005B000E7FB0201C5F313044FEA0B3343EA14537C
:1005C0004FEA0432019C43EA0603A4F10C040294AE
:1005D000009CCDE900B400F00CFA03B0BDE8F08F48
:1005E00000200146F9E72DE9F04D81EA030404F00B
:1005F000004B21F0004514464FF0000A23F0004163
:1006000050EA050220D054EA01021DD0C5F30A5772
:100610000246C5F31303C1F31300C1F30A5640F4B5
:10062000801543F48013A7EB0608101BD64608F28A
:10063000FD3873EB050002D308F1010801E09218C0
:100640005B41B8F1000F03DA00200146BDE8F08DF0
:1006500000204FF48011064684460EE0171B73EB12
:10066000050705D3121B63EB050306434CEA010C97
:1006700049084FEA300092185B4150EA0107EDD17A
:1006800052EA030012D082EA040083EA050108431B
:1006900005D0101BAB4106D20122002306E0002248
:1006A0004FF0004302E06FF0010253101AEB060016
:1006B0004CEB085110EB0A0041EB0B01BDE8F04D8B
:1006C00000F088B9002801DBC0F10040002901DBFF
:1006D000C1F10041814201D80120704700207047DC
:1006E000002801DBC0F10040002901DBC1F100411D
:1006F000814201D20120704700207047002801DBB1
:10070000C0F10040002901DBC1F10041814201D963
:100710000120704700207047002801DBC0F1004035
:10072000002901DBC1F10041814201D10120704764
:100730000020704730B5041E71F1000404DB4FF057
:100740000044404264EB0101141E73F1000405DB18
:100750001C464FF00043524263EB0403101A8B41D6
:1007600001D2012030BD002030BDC10F80EAE07011
:100770000844CA079623002100F0FEB89623002201
:10078000114600F0F9B80EB5C10F80EAE0700844D8
:10079000CA07002140F233438DE80E000A460B469B
:1007A00000F027F903B000BD00F0004220F0004047
:1007B000C10DC0F3160040F400007F2901DA0020CB
:1007C0007047962903DCC1F19601C84001E09639D3
:1007D0008840002AF4D04042704770B5C1F30A52F5
:1007E00001F000450024C1F3130140F2FF3341F44E
:1007F00080119A4201DA002070BD40F233439A42E0
:10080000A2F2334203DC524200F08BF800E0904049
:100810002C43F1D0404270BD00F0004230F0004067
:100820000AD0C10D01F56071C0F3160042EA015112
:10083000C20840071143704700200146704701F08D
:10084000004330B421F0004150EA010206D00A0D05
:10085000A2F56072C1F31301002A02DC30BC002053
:100860007047440F44EAC104C100E01830BC00EBFB
:10087000C25000F078B830B50B4601460020202267
:10088000012409E021FA02F59D4205D303FA02F59D
:10089000491B04FA02F52844151EA2F10102F1DCFD
:1008A00030BD2DE9F05F0546002092469B46884604
:1008B0000646814640241BE02846414647462246DC
:1008C00000F02FF853465A46C01A914110D31146F2
:1008D0001846224600F016F82D1A67EB01084F461D
:1008E00022460120002100F00DF817EB00094E41CF
:1008F000201EA4F10104DFDC484631462A46434667
:10090000BDE8F09F202A04DB203A00FA02F1002023
:1009100070479140C2F1200320FA03F3194390403D
:100920007047202A04DB203A21FA02F000217047A8
:1009300021FA02F3D040C2F1200291400843194647
:100940007047202A06DBCB17203A41FA02F043EA2F
:10095000E07306E041FA02F3D040C2F12002914078
:100960000843194670470029A8BF7047401C49003A
:1009700008BF20F00100704710B4B0FA80FC00FA04
:100980000CF050EA010404BF10BC704749B1CCF12F
:10099000200421FA04F411FA0CF118BF01212143BB
:1009A0000843A3EB0C01CB1D4FEA00614FEA102076
:1009B00042BF002010BC704700EBC3501044002918
:1009C000A4BF10BC7047401C490008BF20F00100C4
:1009D00010BC704710B5141E73F1000408DA401CF7
:1009E00041F1000192185B411A4301D120F001004E
:1009F00010BD2DE9F04D92469B4611B1B1FA81F23E
:100A000002E0B0FA80F220329046FFF77BFF044606
:100A10000F4640EA0A0041EA0B0153465A46084392
:100A200013D0114653EA010019D0C8F140025046D4
:100A3000FFF777FF05460E46504659464246FFF7F8
:100A400061FF084305D0012004E020463946BDE897
:100A5000F08D0020054346EAE0762C4337430A98A0
:100A60006305E40AA0EB08000022FD0A44EA4754AB
:100A70000A3002D500200146E9E701051019694155
:100A8000DDE9084500196941BDE8F04DA2E770B500
:100A900021F0004303430CD0C1F30A550024D5EBE9
:100AA000040564EB0403D617AD1AB34102DB002042
:100AB000014670BD201841EB025170BDC1F30A52CE
:100AC000C1F3130140F2FF3341F480119A4202DA7C
:100AD00000200146704740F233439A42A2F233426B
:100AE00002DC5242FFF71DBFFFF70CBF30B5041EFA
:100AF00071F1000404DB4FF00044404264EB01015B
:100B0000141E73F1000405DB1C464FF000435242F3
:100B100063EB04038B4208BF824230BD30B5041E34
:100B200071F1000404DB4FF00044404264EB01012A
:100B3000141E73F1000405DB1C464FF000435242C3
:100B400063EB0403994208BF904230BD1CB50948CD
:100B50000090094801900546009C06E0E06840F0DE
:100B6000010394E8070098471034AC42F6D3FFF72E
:100B7000E3FA0000FCAE00081CAF00082DE9F04DC0
:100B800000231A461B1A8A4103DB00200146BDE8F8
:100B9000F08DC1F30A52C1F3130141F480154FF0F7
:100BA000000BD10702D100186D41521E00270446E8
:100BB00040F2FF11384601EB620A3E46804602468B
:100BC00000204FF48011FFF7ACFEC2197141BB1831
:100BD00046EB0100B4EB030C75EB000C04D3E41AF4
:100BE00065EB000517460E46241908F101006D411A
:100BF00080463428E3DDF91946EB0600091BA841BD
:100C000003D24FF0FF32134601E0002213461BEBE4
:100C1000070046EB0A51BDE8F04DFFF7DBBE70B5AB
:100C20008C1810F8015B15F0070301D110F8013B97
:100C30002A1106D110F8012B03E010F8016B01F81E
:100C4000016B5B1EF9D12B0705D40023521E0DD476
:100C500001F8013BFAE710F8013BCB1A921C03E0C4
:100C600013F8015B01F8015B521EF9D5A142D8D3FC
:100C7000002070BDFEE7000040F2FC20C2F2000040
:100C800000F0FEB87047000010B582B040F60004D6
:100C9000C4F2010420464021002200F031FC20462D
:100CA0008021012200F02CFC322000F07FFA2E205F
:100CB0000190C020C1F60010009040F2C040C2F286
:100CC0000000694606224FF0FF3302F053FFC820B0
:100CD00000F06CFA20464021002200F011FC204672
:100CE0008021002200F00CFC322000F05FFA02B0FC
:100CF00010BD00004FF4004000F002BBEFF3108085
:100D000072B600BFFEE70000014690F821000228FD
:100D100016D10868D1E90FC3026822F00E02026002
:100D2000026822F001020260012000FA03F2CCF80E
:100D3000042081F821000020002281F82020704743
:100D4000042088630120002281F8202070470000E1
:100D500090F82110022927D1026840F2040C136890
:100D6000C4F2020C23F00E03136013680CF17C0133
:100D70008A4223F0010111601AD940F20841C4F2FD
:100D800002018A4250D040F21C41C4F202018A4260
:100D900042D040F23041C4F202018A4248D14FF4BD
:100DA0008073CCF800345CE004218163012070473B
:100DB0004321C4F202018A420EDD6B21C4F202011A
:100DC0008A421BDC4421C4F202018A423ED05821EF
:100DD000C4F202018A4223E00821C4F202018A42DD
:100DE00032D01C21C4F202018A4237D03021C4F231
:100DF00002018A4214D14FF4807230E06C21C4F2B7
:100E000002018A4226D08021C4F202018A4207D11F
:100E10004FF0807223E000BF1023CCF8003420E0B4
:100E20004FF480321BE000BF0123CCF8003418E0FF
:100E30000CF588614FF480338A4208BF4FF4805329
:100E4000CCF800340DE000BF012208E04FF48052DE
:100E500005E000BF4FF4801201E000BF1022CCF883
:100E60000020012180F82110416B0022002980F828
:100E7000202004BF0020704780B58847002080BD37
:100E800010B5D0E90FE3D0F800C0DEF80020DCF8A0
:100E90000010DA4054072DD511F004042AD0DCF8F4
:100EA0000010890605D4DCF8001021F00401CCF80C
:100EB00000100422C4F2020202F17C018C4569D9BF
:100EC00040F20841C4F202018C4500F0B78040F2C4
:100ED0001C41C4F202018C4500F0A88040F2304170
:100EE000C4F202018C4540F0AD804FF48061C2F83D
:100EF0000014F3E094072FD511F002042CD0DCF895
:100F00000010890608D4DCF8001021F00A01CCF8A2
:100F10000010012180F821100422C4F2020202F123
:100F20007C018C454CD940F20841C4F202018C4549
:100F300000F0BC8040F21C41C4F202018C4500F07C
:100F4000AD8040F23041C4F202018C4540F0B880DF
:100F50004FF40071BCE000BF120740F1D78011F0E0
:100F6000080108BF10BDDCF8001021F00E01CCF81C
:100F70000010012101FA03F2CEF80420816380F809
:100F80002110016B0022002980F8202040F0A88069
:100F9000BCE000BF4321C4F202018C4526DD6B2179
:100FA000C4F202018C4533DC4421C4F202018C45B9
:100FB00000F07E805821C4F202018C453AE000BF67
:100FC0004321C4F202018C4548DD6B21C4F20201C9
:100FD0008C4555DC4421C4F202018C4500F086802A
:100FE0005821C4F202018C455CE000BF0821C4F224
:100FF00002018C4554D01C21C4F202018C456BD0F7
:101000003021C4F202018C4514D14FF4806164E0B8
:101010006C21C4F202018C454ED08021C4F2020141
:101020008C4507D14FF0806157E000BF4021C2F8E6
:10103000001453E04FF480214FE000BF0421C2F8B8
:1010400000144BE002F588634FF480219C4508BFF3
:101050004FF48041C2F8001440E000BF0821C4F200
:1010600002018C4540D01C21C4F202018C4545D0C0
:101070003021C4F202018C4514D14FF400713EE0DE
:101080006C21C4F202018C4534D08021C4F20201EB
:101090008C4507D14FF0007131E000BF202117E0EF
:1010A00004211AE04FF4003129E000BF02210FE0D3
:1010B0004FF4804111E000BF4FF480010DE000BF0C
:1010C00002F588634FF400319C4508BF4FF400518E
:1010D000C2F8001414E000BF40211160C16AA9B138
:1010E000BDE81040084700BF022108E04FF400515E
:1010F00005E000BF4FF4001101E000BF20211160A6
:10110000816A0022002980F82020E9D110BD00006A
:10111000014600284FF0010008BF70472DE9F04755
:1011200040F2000CC4F2020C0A684FF6F8330CF5DA
:10113000816ECBF6FD73724538BF03F5806303EB18
:10114000020E4CF6CD43CCF6CC43AEFB033E0CF581
:1011500080636FF00304D1E9019AD1F80C803CBFA1
:101160000023C4F2020304EA9E04C1E90F340223FF
:1011700081F82130136843F6F074A34301F110079E
:1011800043EA0903F0CF43EA0A0343EA080323438F
:101190002B4333433B43136000228A6381F82100D1
:1011A00081F820200020BDE8F0477047B0B5044624
:1011B00000F0ACF9054640F20800C2F200000078E9
:1011C000611C18BF044400BF00F0A0F9401BA042FE
:1011D000FAD3B0BDB0F5004F18BF70472DE9F04FFE
:1011E00083B040F2D82840F2D02AC2F20008C2F2FE
:1011F000000A40F2E422C2F200024046514605F0E5
:1012000055F840F2AA2B40F2A82940F2AC24C2F2D1
:10121000000BC2F20009C2F20004584649462246B9
:1012200003F026FA40F29C2540F2A02740F2A426C3
:10123000C2F20005C2F20007C2F200062846394693
:10124000324603F0B3F92868FFF7AEFA396805466D
:101250000846FFF7A9FA316806460846FFF7A4FAE0
:10126000B9F90030BBF90070B4F9004002462846D5
:101270003146CDE9007403F0FFF8DAF8002040F2BF
:101280003C10C2F20000002103F062FEBBF9001026
:1012900004460846FFF769FA80F0004240F2F40085
:1012A000C2F20000214603F053FEFFF77DFA40F240
:1012B000D421C2F200010860D8F8002040F260108A
:1012C000C2F20000002103F043FEB9F90010044609
:1012D0000846FFF74AFA80F0004240F21810C2F2C6
:1012E0000000214603F034FEFFF75EFA40F2DC21F5
:1012F000C2F20001086003B0BDE8F04F7047000083
:1013000040F21441C4F201010A68024214BF0860AD
:101310007047FFF75FBF00002DE9F04F82B00E6805
:10132000002E00F0E980A0F1804241F6004540F235
:101330000043A2F58432C4F201050624C4F201037D
:101340004FEAB227A84208BF05244FF0000E4FF025
:1013500001080F254FF0000A4FF0000B052F38BF92
:101360004FEAB224009408E00E680AF1010A36FA46
:101370000AF20EF1040E00F0BF8008FA0AFC16EA29
:101380000C09F1D04E684FF6FF72C1F2100296427E
:1013900012DC122E56D8DFE806F0350B4D495555B4
:1013A000555555555555555555555545510000BF41
:1013B000D1F80CB046E000BF4FF6FF72C1F2210237
:1013C00096420FDC0022C1F2110296421AD000228E
:1013D000C1F21202964215D00022C1F221029642B9
:1013E00010D02FE00022C1F2220296420AD0002241
:1013F000C1F23102964205D00022C1F23202964279
:1014000020D100BF8A684AB1012A14BFC0F814C0B5
:10141000C0F810C04FF0080B14E000BF4FF0040BF1
:1014200010E000BFCA6802F1040B0BE04FF0000BA4
:1014300008E000BFCA6802F1080B03E0CA6802F1C5
:101440000C0B00BF02467446B9F5807F24BF0432FE
:10145000203C166805FA04F726EA07070BFA04F69B
:1014600037431760CA79D2067FF57EAF41F218077D
:10147000C4F202073A684FF6084542F001023A60AA
:101480003A68CFF6FF7502F001020192019A2AF044
:1014900003021A440F2457590EF00C06B440A74318
:1014A000009C04FA06F6374357514E6840F20C444C
:1014B000F2029A6854BF22EA090242EA0902C4F21F
:1014C00001049A602268B70254BF22EA090242EA84
:1014D000090222605A68B70354BF22EA090242EAAD
:1014E00009025A600F251A68F70354BF22EA09025D
:1014F00042EA09021A6037E702B0BDE8F08F000047
:10150000002A08BF090401617047000040F25850EA
:10151000C2F2000000687047002804BF0120704735
:10152000F0B581B0044690F83D0028B9002084F859
:101530003C00204600F0F4FA242084F83D002068A6
:10154000016821F001010160016841F4004101607E
:10155000016821F40041016000F0F6FC636848F284
:10156000A16CC0F2010C40F60011C0F23D016345D0
:101570003CBF48F28041C0F21E01884202D20120E5
:1015800001B0F0BD4DF68361C4F21B31A0FB011226
:101590002168970CD1F804E04FF496762EF03F05C1
:1015A00045EA92454D60774348F638160D6AC0F219
:1015B0004106A7FB067625F03F07634538BF960C2A
:1015C000721C3A430A62CA6948F2A0664CF6FF7779
:1015D000C0F20106B34222EA07020BD801385B00D1
:1015E000B0FBF3F001306FF31F30042898BF0420E4
:1015F0001BE000BFA768013857B119277B43B0FB38
:10160000F3F001306FF31F3070B100F5804007E058
:1016100003EB4303B0FBF3F001306FF31F3018B15D
:1016200000F5004001E000BF01201043C8610868D8
:10163000D4E9072320F0C0001043184308608868ED
:1016400048F2FF3204F10C0790438CCF184310434B
:10165000A6698860C86820F0FF0038433043C8603E
:10166000086840F00100086000202021206484F810
:101670003D10206384F83E0001B0F0BD2DE9F04F2D
:1016800085B004460020994616460F460490FFF7A1
:101690003DFF94F83D10202927D10546206800BF62
:1016A000816989071CD5FFF731FF411B20681A2982
:1016B000F6D381698907F3D500202021206384F8BF
:1016C0003D1084F83E00206C04F13C0A40F02000FC
:1016D0002064022000218AF8001005B0BDE8F08FD8
:1016E000A2461AF83C1F012904D1022005B0BDE82A
:1016F000F08F00BF01228AF800200368DDE90F188F
:101700000E9ADB0703D1036843F00103036003680B
:1017100023F400630360222084F83D00402084F815
:101720003E000020206462626185608D394620851C
:101730000020CFF6FF70E062204632464B46CDE9EE
:10174000008502F055FB18B1012005B0BDE8F08F0F
:10175000208D022826D001280ED0002838D1002064
:10176000039020684169039181690391039901689D
:1017700041F40071016037E02068016821F4806164
:101780000160EFF3108072B6002003902068416979
:101790000391816903910399016841F4007101602B
:1017A00062B621E02068016841F400610160EFF356
:1017B000108072B60020039020684169039181690E
:1017C00003910399016821F48061016062B60BE026
:1017D0002068016841F48061016000210391416942
:1017E0000391806903900398208D002800F0CA803F
:1017F000042740F24C094BF2895BC0F20107C2F2A8
:101800000009C1F2F84B232617E000BF20464146ED
:101810002A4602F08BFD002896D12068616A006993
:101820000870606A218D01306062481E2085618DDC
:1018300001396185010400F0A58080B2032865D8D4
:10184000022800F07F800128E0D02046394600229F
:101850004346009502F018FC00287FF475AF20681D
:10186000016821F480610160EFF3108072B6206896
:10187000616A00690870606A218D01300139606217
:101880002185618D01396185D9F80010C908A1FB56
:101890000B12110A714304910499013904910499BE
:1018A000002900F07B8021684A6952071DD4049901
:1018B000013904910499002970D021684A695207BE
:1018C00013D40499013904910499002966D0216840
:1018D0004A69520709D404990139049104990029ED
:1018E0005CD021684A695207D6D50A6842F4007272
:1018F0000A6009690170606A218D01306062481ECA
:101900002085608D0138608562B686E720464146B5
:101910002A4602F00BFD00287FF416AF2068616AAA
:1019200000690870606A2268411C208D616201387C
:101930002085638D013B638553695B077FF57AAF33
:1019400010696DE72046394600224346009502F0B3
:101950009BFB00287FF4F8AEEFF3108072B620688E
:10196000616A026842F40072026000690870606A8D
:10197000218D01306062481E2085608D01386085B0
:1019800062B64AE7202084F83D00002084F83E003B
:1019900000218AF8001005B0BDE8F08F002020215A
:1019A000206384F83D1084F83E00206C40F0200055
:1019B000206462B6012000218AF8001005B0BDE85D
:1019C000F08F00002DE9F04383B0994616460F468C
:1019D0000446FFF79BFD94F83D10202924D10546CD
:1019E000206800BF816989071AD5FFF78FFD411B69
:1019F00020681A29F6D381698907F3D500202021B0
:101A0000206384F83D1084F83E00216C41F02001F1
:101A1000216484F83C00022003B0BDE8F08300BFDD
:101A200094F83C10012903D1022003B0BDE8F083F3
:101A3000012284F83C200368DDE90B180A9ADB07D1
:101A400003D1036843F001030360036823F40063D8
:101A50000360212084F83D00402084F83E000020EF
:101A6000206462626185608D394620850020CFF652
:101A7000FF70E062204632464B46CDE9008502F019
:101A800041FA18B1012003B0BDE8F083208D98B968
:101A9000204641462A4602F099FA88B3206C042871
:101AA000F0D12068016841F400710160012003B0A9
:101AB000BDE8F0830004EBD0204641462A4602F000
:101AC0007DFC0028EAD1616A2268084610F8013BD3
:101AD0001361238D6062581E2085678D013F6785E5
:101AE00057697F07E6D50704E4D048781061881C61
:101AF0006062981E2085618D01396185DAE700BF3B
:101B00002068016841F400710160202084F83D00E4
:101B1000002084F83E0084F83C0003B0BDE8F08368
:101B200010B586B0016845F60000C4F2000081429D
:101B30004FF00001CDE90411CDE9021102D006B049
:101B400010BD00BF41F21804C4F20204216800F580
:101B5000344041F008012160216801F00801019141
:101B600001994FF4406102911221039103210591E3
:101B700002A9FFF7D1FB606840F4800060606068F4
:101B800000F480000190019806B010BD002804BF49
:101B900001207047B0B504460068D4E901124CF644
:101BA000CC43036045F25553036041608260FFF708
:101BB000ADFC2168CA68920710D0054603E000BF5B
:101BC000C86880070AD0FFF7A1FC401B21682828BD
:101BD000F6D3C8688007F3D00320B0BD4AF6AA2028
:101BE00008600020B0BD000001684AF6AA2200206B
:101BF0000A60704740F2080040F25851C2F20000FB
:101C0000C2F2000100780A681044086070470000C2
:101C100080B542F20000C4F20200016841F01001F8
:101C20000160032000F0A2F80F2000F005F800F09A
:101C300027F8002080BD000070B540F20806C2F20F
:101C4000000640F24C013278C2F200014FF47A7380
:101C50000968B3FBF2F20446B1FBF2F1084600F06A
:101C60009BFB0F2C4FF0010508D838B94FF0FF301F
:101C700021460022002500F04DF87460284670BD12
:101C800082B041F21800C4F202000168022241F061
:101C900001010160016801F00101019101994168B0
:101CA00041F080514160406800F080500090009801
:101CB0000420C4F20100016862F31A61016002B0FD
:101CC00070470000002848BF704700F01F01012244
:101CD00002FA01F11C2202EAD0004EF28012CEF28A
:101CE00000028150BFF34F8FBFF36F8F704700002A
:101CF000002848BF704700F01F01012202FA01F1DD
:101D00001C2202EAD0004EF20012CEF200028150F4
:101D10007047000010B54EF60C5CCEF2000CDCF8FB
:101D20000030C3F3022E8EF00704042C28BF0424D5
:101D3000BEF103034FF0FF3E0EFA04F438BF002358
:101D4000A14399400EFA03F39A43114300F00F02A6
:101D500000F160430901043A03F56443624400283A
:101D600048BF02F10C03197010BD00004EF60C5173
:101D7000CEF200010A684FF6FF031A4060F30A2210
:101D800042F0806040F0FD7008607047002804BF9A
:101D9000012070472DE9F04381B042F20008C4F2FF
:101DA00002080446D8F800000D4600F007008842FB
:101DB0000CD2D8F8000020F007002843C8F8000033
:101DC000D8F8000000F00700A8426CD1206841F26A
:101DD00004098107C4F2020917D5410705D5D9F8CE
:101DE000001041F4E061C9F80010010705D5D9F8E9
:101DF000001041F46051C9F80010D9F80010A26831
:101E000021F0F0011143C9F80010C00742D1D8F801
:101E1000000000F00700A8420CD9D8F8000020F01C
:101E200007002843C8F80000D8F8000000F00700B9
:101E3000A84238D12068410707D5D9F80010E268D8
:101E400021F4E0611143C9F80010000708D5D9F862
:101E50000000216920F4605040EAC100C9F8000088
:101E6000D9F8002002F00C00082841F20020C0F24E
:101E70007A004DD14AF25023C2F38341C0F60003E9
:101E8000595CD20338D440F60010C0F23D004843FC
:101E90003EE000BF606859F8041C022808D0012801
:101EA00026D1890306D4012001B0BDE8F08300BF2C
:101EB0008901F8D5D9F8001021F003010843C9F8C9
:101EC0000000FFF723FB064641F28837D9F80000EF
:101ED000616800F00C00B0EB810F98D0FFF716FBA3
:101EE000801BB842F2D9032001B0BDE8F08300BFE7
:101EF0008907D8D5DEE700BFD9F800204AF24E2383
:101F0000C2F34042C0F600039A5C4843B0FBF2F0D3
:101F1000D9F800104AF23622C1F30311C0F60002CC
:101F2000515C40F24C0220FA01F140F20C00C2F286
:101F300000000068C2F200021160FFF77DFE002081
:101F400001B0BDE8F083000040F24C0041F2040112
:101F5000C2F20000C4F20201006809684AF2462297
:101F6000C1F30221C0F60002515CC8407047000076
:101F700040F24C0041F20401C2F20000C4F202013E
:101F8000006809684AF24622C1F3C221C0F6000285
:101F9000515CC84070470000002804BF0120704712
:101FA0002DE9F04182B00446007841F20006C007F6
:101FB000C4F202060CD0706800F00C00042840F057
:101FC00081803068800303D56068002800F0468176
:101FD000207880071BD5706810F00C0F09D070684E
:101FE00000F00C00082840F087807068C00300F102
:101FF00083803068800703D52069012840F02E8156
:102000003068616920F0F80040EAC1003060207853
:10201000000713D4207840072CD4E569002D00F088
:102020001881706800F00C00082840F0A780012D8E
:1020300040F00481012002B0BDE8F081A0690028D1
:1020400000F084800020C4F242200121C0F88014F6
:10205000FFF75CFA054600BF706A800700F1B280A6
:10206000FFF754FA401B0228F6D9032002B0BDE85E
:10207000F08100BFF0695FEAC00808D4F06940F061
:102080008050F061F06900F080500090009847F2B5
:102090000007C4F200073868C00549D4386840F426
:1020A00080703860FFF732FA054600BF3868C00517
:1020B0003ED4FFF72BFA401B6428F7D9032002B067
:1020C000BDE8F081706800F00C00082803D170684A
:1020D000C0033FF576AF61683068002900F00C81DD
:1020E000B1F5A02F00F00081B1F5803F40F01A81DA
:1020F00040F480301CE100BF2069002840F200005D
:10210000C4F2422000F0888001210160FFF7FEF94F
:10211000054600BF306880073FF572AFFFF7F6F95C
:10212000401B0228F6D9032002B0BDE8F08100BFB1
:10213000E168306A002900F09D80052900F0928056
:10214000012940F0AF8040F00100B1E00020C4F26E
:1021500042200021C0F88014FFF7D8F9054600BFDF
:10216000706A80077FF556AFFFF7D0F9401B022851
:10217000F6D9032002B0BDE8F08100BF0027C4F209
:10218000422700203866FFF7C1F9022D05460DD120
:102190003068800140F1DE80FFF7B8F9401B02286B
:1021A0004FF00300F4D902B0BDE8F081306880013F
:1021B0004FD5FFF7ABF9401B02284FF00300F5D9CC
:1021C000F1E700BF40F24C00C2F20000006844F6A4
:1021D000D351C1F26201A0FB0101480A019000BF86
:1021E00000BF0198411E002801913FF413AF00BFCA
:1021F0000198411E002801913FF40CAF00BF0198E7
:10220000411E002801913FF405AF00BF0198411E17
:1022100000280191E4D1FDE600210160FFF776F985
:10222000054600BF306880077FF5F1AEFFF76EF915
:10223000401B02284FF00300F4D9B4E77068216A0C
:1022400000F480328A4209D1616A00F47010884239
:1022500004D1002002B0BDE8F08100BF012002B02F
:10226000BDE8F08140F004003062306A40F00100C7
:102270001EE000BF20F001003062306A20F0040050
:102280003062FFF743F9054641F28837306A80072C
:1022900020D5FFF73BF9401BB8424FF00300F5D9BA
:1022A00081E700BF20F001003062306A20F00400B6
:1022B0003062FFF72BF9054641F28837306A800714
:1022C00008D4FFF723F9401BB842F7D9032002B026
:1022D000BDE8F081B8F1000F3FF59FAEF06920F046
:1022E0008050F06199E600BF40F480203060306893
:1022F00040F480301CE000BF20F480303060306853
:1023000020F480203060FFF701F905463068800333
:102310007FF55EAEFFF7FAF8401B64284FF003002C
:10232000F4D940E720F480303060306820F4802019
:102330003060FFF7EBF80546306880033FF548AEA4
:10234000FFF7E4F8401B6428F6D9032002B0BDE88B
:10235000F08100BF206AB0F5803F05D17168A268A6
:1023600021F40031114371607168626A21F47411C3
:1023700011430843706001203866FFF7C7F8044630
:10238000306880013FF565AFFFF7C0F8001B0228F9
:102390004FF00300F4D906E7411E0020B0EB116FA7
:1023A0001CBF012070474EF21002CEF200025160B5
:1023B0004EF62351CEF20001F0230B7007219060FE
:1023C00011607047704700007047000090F83C2093
:1023D000012A4FF0020242D010B580F83D20026879
:1023E000D2F804E0D2F808C00C682EF07003234342
:1023F00040F6FF34C4F20004A242536010DCB2F194
:10240000804F1FD040F20043C4F200039A4219D01B
:1024100040F60003C4F200039A4213D017E000BF55
:1024200040F60043C4F200039A420BD043F200434B
:10243000C4F201039A4205D042F60043C4F20103FC
:102440009A4204D149682CF080031943916001211C
:10245000002280F83D1080F83C20BDE81040104676
:1024600070470000002804BF0120704710B590F8A5
:102470003D1031B9002180F83C10044600F082F88C
:102480002046022180F83D10016840F6FF320B68BB
:10249000C4F2000240F6004E43F2004C9142C4F2F6
:1024A000000EC4F2010C21DCB1F1804F28D040F2C3
:1024B0000044C4F20004A14222D040F60004C4F259
:1024C0000004A1421CD0914220DCB1F1804F27D002
:1024D00040F20042C4F20002914221D040F60002D4
:1024E000C4F2000291421BD01EE000BF714507D02C
:1024F000614505D042F60044C4F20104A142E2D194
:10250000846823F0700323439142DEDD714507D0D8
:10251000614505D042F60042C4F20102914203D166
:10252000026923F440731343846923F08002D0F8D6
:1025300004E0C368224361450A60CB62C1F828E029
:1025400005D042F60042C4F20102914201D1426933
:102550000A6301224A6180F8462080F83E2080F814
:102560003F2080F8402080F8412080F8422080F809
:10257000432080F8442080F8452080F83D2000204A
:1025800010BD000080B586B0006840F2FF71C4F253
:10259000000188424FF00001CDE90411CDE902119C
:1025A0003ADCB0F1804F75D040F20041C4F2000136
:1025B000884240F0AC8041F21800C4F20200416849
:1025C00041F002014160416801F00201019101996D
:1025D000016841F010010160006802A900F01000DC
:1025E000019001984FF4807002900020CDE9030023
:1025F00040F60000C4F2010000F50060FEF78CFE1A
:102600000420C4F20100016841F0E06141F440613E
:10261000016006B080BD00BF40F60001C4F20001B9
:10262000884247D042F60041C4F2010188426ED18F
:1026300041F21800C4F20200016841F40061016037
:10264000016801F4006101910199016841F0040100
:102650000160006802A900F00400019001984FF4A5
:10266000807002900020CDE9030040F60000C4F223
:102670000100FEF751FE182000210022FFF74AFB5F
:102680001820FFF735FB192000210022FFF742FB3D
:1026900019203AE041F21800C4F20200416841F00A
:1026A00001014160406800F001000190019806B00E
:1026B00080BD00BF41F21800C4F20200416841F041
:1026C00004014160416801F0040101910199016830
:1026D00041F008010160006802A900F008000190C3
:1026E00001984FF4007002900020CDE9030040F6FD
:1026F0000000C4F2010000F58060FEF70DFE1E2010
:1027000000210022FFF706FB1E20FFF7F1FA06B0BA
:1027100080BD000090F83D1001291CBF01207047CA
:10272000022180F83D10006840F6FF32C168C4F213
:102730000002904241F00101C1600FDCB0F1804F16
:102740001ED040F20041C4F20001884218D040F689
:102750000001C4F20001884212D018E040F60041A6
:10276000C4F2000188420BD043F20041C4F20101DF
:10277000884205D042F60041C4F20101884206D1E8
:10278000816801F00701062904BF00207047016835
:1027900041F00101016000207047000090F83C20EA
:1027A000012A4FF002026CD080B580F83D20D0F8AD
:1027B00000C04FF67772DCF8083023EA0202CCF84A
:1027C00008200B684F2B29DC1F2B45DD202B46D022
:1027D000302B44D0402B40F0AF80D1F804E0C968E2
:1027E000DCF82030DCF8202022F00102CCF8202098
:1027F000DCF8182022F0F00242EA011123F00A026C
:1028000042EA0E02CCF81810CCF82020DCF80810B0
:1028100041F0470121F0300128E000BF6F2B33DD8C
:10282000B3F5005F74D0B3F5805F21D0702B40F01A
:102830008380D1E901E3C968DCF8082043EA0E038C
:1028400022F47F4243EA01211143CCF80810DCF85E
:10285000081041F0770109E00BB1102B6CD1DCF8C6
:10286000081021F07001194341F00701CCF808105D
:102870000022012180F83D10002180F83C10BDE8C5
:1028800080401046704700BF502B21D0602B53D1A1
:10289000D1F804E0C968DCF82030DCF8202022F010
:1028A0001002CCF82020DCF8182022F4704242EA12
:1028B000013123F0A00242EA0E12CCF81810CCF835
:1028C0002020DCF8081041F0670121F01001CDE76D
:1028D000D1F804E0C968DCF82030DCF8202022F0D0
:1028E0000102CCF82020DCF8182022F0F00242EAA5
:1028F000011123F00A0242EA0E02CCF81810CCF8BB
:102900002020DCF8081041F0570121F02001ADE74C
:10291000D1E901E3C968DCF8082043EA0E0322F498
:102920007F4243EA01211143CCF80810DCF808107B
:1029300041F480419AE700BF01229AE77047000006
:1029400090F83C30012B04BF022070474FEAB202DE
:10295000032A00F28D80F0B5DFE802F00264284619
:102960000368D1E900C5D1F80CE01C6A1A6A40F688
:10297000FF3722F001021A621A4652F8186FC4F2A9
:102980000007BB427ADCB3F1804F00F0898040F24F
:102990000047C4F20007BB4200F0828040F6000707
:1029A000C4F20007BB427BD096E000BF0768D1E9C4
:1029B00000C5D1E902313C6A3A6A61F3071522F495
:1029C00080723A623A4652F81C6F26F0F30645EAE6
:1029D00006014FEA5C0666F3492411603C62116807
:1029E00021F00C0111606CE00368D1E900E6D1E947
:1029F00002C11C6A1A6A360222F480521A621A460E
:102A000052F81C5F4FF2FF07BE4325F4734561F394
:102A10000F364FEA5E0746EA050167F34D34116051
:102A20001C621EE00368D1E900E6D1E902C11C6A1C
:102A30001A6A360222F010021A621A4652F8185F19
:102A40004FF2FF07BE4325F4734561F30F3624F0C0
:102A5000A0040EF00A0746EA050144EA07171160D0
:102A60001F6211684FEA0C2321F44061116028E0D5
:102A70000121002280F83C200846704740F60047BC
:102A8000C4F20007BB420BD043F20047C4F2010777
:102A9000BB4205D042F60047C4F20107BB421BD13E
:102AA00026F00306354324F00A070CF00A066EF3FD
:102AB000071537449D611F629F6927F00C079F61CE
:102AC0008B681168194311600021BDE8F0400022B5
:102AD00080F83C200846704746F00105E3E7000017
:102AE000002804BF0120704710B590F83D1031B99F
:102AF000002180F83C10044600F082F820460221B4
:102B000080F83D10016840F6FF320B68C4F2000205
:102B100040F6004E43F2004C9142C4F2000EC4F263
:102B2000010C21DCB1F1804F28D040F20044C4F206
:102B30000004A14222D040F60004C4F20004A142E5
:102B40001CD0914220DCB1F1804F27D040F20042EE
:102B5000C4F20002914221D040F60002C4F2000209
:102B600091421BD01EE000BF714507D0614505D0E2
:102B700042F60044C4F20104A142E2D1846823F089
:102B8000700323439142DEDD714507D0614505D0D6
:102B900042F60042C4F20102914203D1026923F4D9
:102BA00040731343846923F08002D0F804E0C368C3
:102BB000224361450A60CB62C1F828E005D042F6A5
:102BC0000042C4F20102914201D142690A6301222A
:102BD0004A6180F8462080F83E2080F83F2080F847
:102BE000402080F8412080F8422080F8432080F87F
:102BF000442080F8452080F83D20002010BD0000D2
:102C00007047000010B5016804460869800744BF9A
:102C1000C8685FEA807039D40869400744BFC86853
:102C20005FEA40703ED40869000744BFC8685FEAA5
:102C3000007045D40869C00644BFC8685FEAC06038
:102C40004AD40869C0071CBFC8685FEAC07051D188
:102C50000869000644BFC8685FEA006052D408698A
:102C6000400644BFC8685FEA406053D408698006E4
:102C700046BFC8685FEA806010BD6FF02002204642
:102C80000A61BDE81040FFF79FBB00BF6FF0020074
:102C90000861012020778869800743D02046FFF72C
:102CA0004DFE45E06FF0040008610220207788693E
:102CB00010F4407F40D02046FFF740FE42E000BFC6
:102CC0006FF00800086104202077C86980073DD0B4
:102CD0002046FFF733FE3FE06FF010000861082048
:102CE0002077C86910F4407F3AD02046FFF726FECF
:102CF0003CE000BF6FF001000861204600F06EFA72
:102D00002168A5E76FF0800008612046FFF75AFBB5
:102D10002168A4E76FF040000861204600F00AFB3C
:102D20002168A3E7204600F025F8204600F0E4F9EA
:102D30002168002020776FE7204600F01BF820462E
:102D400000F0DAF92168002020776CE7204600F0D7
:102D500011F8204600F0D0F921680020207769E7BB
:102D6000204600F007F8204600F0C6F92168002050
:102D7000207766E77047000090F83C30012B04BFD5
:102D8000022070474FEAB202032A00F21D812DE9AA
:102D9000F041DFE802F003C7479100BF036843F248
:102DA00000461D6A1A6A25F0020522F001021A6225
:102DB0001A465C6852F818CF8F68D1F800E0C4F268
:102DC0000106B34245EA070505D042F60047C4F2C2
:102DD0000107BB4205D1CF6825F00C0527F0040799
:102DE0003D43B34205D042F60046C4F20106B34269
:102DF00005D1D1E9056724F4407434433C432CF0F9
:102E0000730747EA0E075C609F614F6809695F635B
:102E10001D629F6947F008079F619F6927F00407BB
:102E20009F61C6E0036843F200461D6A1A6A25F4F2
:102E3000007522F480721A621A46D3F804C052F860
:102E40001CEF8F68D1F80080C4F20106B34245EA56
:102E5000072505D042F60047C4F20107BB4208D15E
:102E6000CF6840F2FF443F0225F4406527EA04049E
:102E70002543B34205D042F60044C4F20104A34204
:102E800006D1D1E905462CF44057264347EA061CF3
:102E90002EF0730747EA0807C3F804C0DF614F68E4
:102EA0000969DF631D62DF6947F00807DF61DF69D9
:102EB00027F00407DF617CE0036843F20047D3F8A2
:102EC00020C01A6AC4F2010722F480521A621A461C
:102ED0005C6852F81C5FD1F800E08E68BB4205D0F8
:102EE00042F60047C4F20107BB4204D14F6924F403
:102EF000804444EA87142CF4005747EA063725F447
:102F0000E64646EA0E265C60DE614E6809691E648C
:102F10001F62DF6947F40067DF61DF6927F48067BC
:102F2000DF6145E0036843F200481D6A1A6A25F034
:102F3000200522F010021A621A465C6852F818CF77
:102F40008F68D1F800E0C4F20108434545EA07154F
:102F500005D042F60047C4F20107BB4207D1CF6853
:102F60006FF0400625F0C00506EA071635434345D5
:102F700005D042F60046C4F20106B34206D1D1E9BB
:102F8000056724F440643E4344EA86042CF4E64793
:102F900047EA0E275C609F614F6809699F631D6265
:102FA0009F6947F400679F619F6927F480679F616D
:102FB00009021368194311600021BDE8F0410022A5
:102FC00080F83C20084670470121002280F83C2010
:102FD00008467047002804BF0120704710B590F8DC
:102FE0003D1031B9002180F83C10044600F082F811
:102FF0002046022180F83D10016840F6FF320B6840
:10300000C4F2000240F6004E43F2004C9142C4F27A
:10301000000EC4F2010C21DCB1F1804F28D040F247
:103020000044C4F20004A14222D040F60004C4F2DD
:103030000004A1421CD0914220DCB1F1804F27D086
:1030400040F20042C4F20002914221D040F6000258
:10305000C4F2000291421BD01EE000BF714507D0B0
:10306000614505D042F60044C4F20104A142E2D118
:10307000846823F0700323439142DEDD714507D05D
:10308000614505D042F60042C4F20102914203D1EB
:10309000026923F440731343846923F08002D0F85B
:1030A00004E0C368224361450A60CB62C1F828E0AE
:1030B00005D042F60042C4F20102914201D14269B8
:1030C0000A6301224A6180F8462080F83E2080F899
:1030D0003F2080F8402080F8412080F8422080F88E
:1030E000432080F8442080F8452080F83D200020CF
:1030F00010BD00007047000070470000C1B10429F6
:1031000008D0082914BF41224022825C012A05D040
:1031100016E000BF3F22825C012A11D10222082959
:1031200010D0042914BF80F8412080F83F200BE024
:1031300090F83E20012A03D1022280F83E2003E0CD
:103140000120704780F84020006801F01F01012233
:10315000036A02FA01F123EA01020262026A1143E0
:1031600040F6FF32C4F20002904201620EDCB0F180
:10317000804F25D040F20041C4F2000188421FD0A8
:1031800040F60001C4F2000118E000BF40F6004123
:10319000C4F20001884213D043F20042C4F201029B
:1031A00042F600419042C4F2010101D088420ED1A2
:1031B000436C904243F40043436401D0884206D1FB
:1031C000816801F00701062904BF002070470168EB
:1031D00041F00101016000207047000040F2A03181
:1031E000C2F20001884218BF70472DE9F04140F259
:1031F000B028C2F20008D8F8000045F62944013092
:10320000CCF28F2400FB04F14BF651024FEA71011E
:10321000C0F21E529142C8F8000007D840F2943024
:10322000C2F20000FEF7E0FCD8F8000047F2A3026B
:1032300000FB04F1C0F63D22914205D804F0B8FF2E
:1032400004F0E0FFD8F8000040F2F001C2F2000103
:103250000B88002B62D040F2500E03F0030C042BBD
:10326000C2F2000E02D2002330E000BF6FF0300740
:1032700007EA031400250126002300BF0EEB050713
:10328000B9884035B0FBF1F2043302FB110100298B
:1032900008BF3E70B98AB0FBF1F202FB11010029B0
:1032A00008BF3E74B98CB0FBF1F202FB110100299A
:1032B00008BF87F82060B98EB0FBF1F202FB110164
:1032C000002908BF87F83060AC42D7D1BCF1000FAD
:1032D00024D00EEB03129188B0FBF1F303FB110134
:1032E000002904BF01211170BCF1010F16D0918A91
:1032F000B0FBF1F303FB110119B902F11001012335
:103300000B70BCF1020F09D0918CB0FBF1F303FB01
:10331000110119B902F1200101220A7044F2412180
:10332000C0F20F01884204BF0020C8F80000BDE8C9
:10333000F041704770470000704700007047000080
:10334000B0B582B001680A68CC684B6902F02F05FD
:10335000202D04F0200505D125B102B0BDE8B04014
:1033600001F0A2BE5FEA027C1EBF03F0010E04F46E
:10337000907313EB0E0341D1036BD50618D5012BC7
:1033800016D114F0100313D0002201920A680192A2
:103390004A680192019A496949064BD4818DC28DD0
:1033A000C38D002B18BF914240F0F48102B0B0BD34
:1033B00013062DD514F080032AD090F84120212A3D
:1033C000F4D18268B2F5805F03D10269002A00F06F
:1033D0006782026A531C036212784A60C28C013A07
:1033E0001304C284E2D1C86820F08000C860C868B5
:1033F00040F04000C86002B0B0BD00BFD30718BFA6
:1034000014F4807340F0D080530700F1D380D8E0EB
:103410005206CBD514F04002C8D0CA6822F0400250
:10342000CA60202180F8411002B0BDE8B04000F031
:10343000DBBC00BFC16B0A68526893B2002BB5D0E9
:10344000858DAB42B2D2C2858969202900F0A18066
:10345000016851E8031F026821F4807142E80313F8
:10346000DBB1016851E8031F026821F4807142E872
:10347000031393B1016851E8031F026821F48071BE
:1034800042E803134BB1016851E8031F026821F4BD
:10349000807142E80313002BDAD1016851E8051F5F
:1034A000026821F0010142E80513C3B3016851E845
:1034B000051F026821F0010142E805137BB3016892
:1034C00051E8051F026821F0010142E8051333B3FA
:1034D000016851E8051F026821F0010142E8051367
:1034E000002BDAD11BE000BF016851E8051F02681C
:1034F00021F0400142E80513DBB1016851E8051FE6
:10350000026821F0400142E8051393B1016851E8D7
:10351000051F026821F0400142E805134BB1016824
:1035200051E8051F026821F0400142E80513002B15
:10353000DAD1202180F8421000210163016851E8AE
:10354000031F026821F0100142E80313DBB1016898
:1035500051E8031F026821F0100142E8031393B100
:10356000016851E8031F026821F0100142E80313CB
:103570004BB1016851E8031F026821F0100142E8D5
:103580000313002BDAD1C16B04460846FDF7BCFBE0
:10359000204602214163818DC28D891A89B202B011
:1035A000BDE8B040FFF7C8BE436C43F0010343647D
:1035B000530706D5BEF1000F03D0436C43F002035E
:1035C0004364930706D5BEF1000F03D0436C43F06C
:1035D00004034364BCF1000F06D55EEA050303D083
:1035E000436C43F008034364436C002B3FF4DEAEAE
:1035F000920605D525B1044601F056FD2168204606
:103600004969426C01F0400102F00802891800F09B
:10361000B98000BF016851E8031F026821F490716E
:1036200042E80313BBB3016851E8031F026821F4A9
:10363000907142E8031373B3016851E8031F0268F5
:1036400021F4907142E803132BB3016851E8031F82
:10365000026821F4907142E80313002BDAD11AE0DA
:10366000016851E8051F026821F0010142E80513D5
:10367000DBB1016851E8051F026821F0010142E851
:10368000051393B1016851E8051F026821F001019B
:1036900042E805134BB1016851E8051F026821F0AB
:1036A000010142E80513002BDAD1016B012924D175
:1036B000016851E8031F026821F0100142E803137A
:1036C000DBB1016851E8031F026821F0100142E8F4
:1036D000031393B1016851E8031F026821F0100140
:1036E00042E803134BB1016851E8031F026821F05F
:1036F000100142E80313002BDAD1202180F8421098
:103700000021016301684969490640F1C3800168ED
:1037100051E8051F026821F0400142E80513DBB1C2
:10372000016851E8051F026821F0400142E80513D5
:1037300093B1016851E8051F026821F0400142E899
:1037400005134BB1016851E8051F026821F04001E3
:1037500042E80513002BDAD1C16B002900F09A80F2
:1037600045F29D02C0F60002044608464A63FDF792
:10377000EFFA00283FF41AAEE06B416B02B0BDE8EF
:10378000B04008470446FFF7D9FD0020606402B04E
:10379000B0BD00BF891A00BF026852E8032F03685A
:1037A00022F4907243E80325BDB3026852E8032F68
:1037B000036822F4907243E8032575B3026852E867
:1037C000032F036822F4907243E803252DB30268A7
:1037D00052E8032F036822F4907243E80325002D7A
:1037E000DAD11AE0026852E8052F036822F00102DC
:1037F00043E80525DDB1026852E8052F036822F091
:10380000010243E8052595B1026852E8052F0368D7
:1038100022F0010243E805254DB1026852E8052F68
:10382000036822F0010243E80525002DDAD12022A9
:1038300080F8422000220263026852E8032F0368E6
:1038400022F0100243E80325DDB1026852E8032F9D
:10385000036822F0100243E8032595B1026852E89C
:10386000032F036822F0100243E803254DB10268DC
:1038700052E8032F036822F0100243E80325002DCD
:10388000DAD1022289B2426302B0BDE8B040FFF74C
:1038900053BD00BF02B0BDE8B040FFF74FBD00BF51
:1038A000026A32F8023B6FF35F234B60026295E5D8
:1038B000002804BF0120704710B5044690F841006D
:1038C00028B9002084F84000204600F063F8242046
:1038D00084F841002068D4E90212C36823F400533D
:1038E000C360036923F440531A430261D4E90423FB
:1038F0001143C268194341F20C639A431143C160FA
:103900004169A26921F44071114343F60002C4F2F7
:1039100001029042416103D0FEF716FB02E000BFB6
:10392000FEF726FBD4E90023192148439900B0FB98
:10393000F1F048F21F5CC5F2EB1CA0FB0C314FF616
:103940009C734909C0F6FF7301FB0300322303EBAC
:103950000010A0FB0C03F02000EA531000EB011054
:10396000C3F34311084490601069202120F4904073
:103970001061506920F02A005061D06840F4005076
:10398000D0600020606484F8411084F842106063C5
:1039900010BD0000F0B585B0016844F20042C4F2E9
:1039A0000002002791420497CDE9027701973BD0AE
:1039B00043F60000C4F20100814240F0858041F2EC
:1039C0001800C4F20200016840F6000441F480418E
:1039D00001600168C4F2010401F480410091009982
:1039E000016801AD41F0040101600068294600F062
:1039F0000400009000984FF40070019002200290A3
:103A0000032004902046FDF787FC4FF4806001906E
:103A10000020CDE9020020462946FDF77DFC252047
:103A20000121002225244AE0064641F21800C4F292
:103A30000200416840F6000441F4003141604168F1
:103A4000C4F2010401F4003100910099016801AD54
:103A500041F0040101600068294600F00400009074
:103A60000098042001900220029003200490204638
:103A7000FDF752FC0820CDE90107204629460397AF
:103A8000FDF74AFC40F2FC248020C2F20004C4F29C
:103A900002001021802284E883002046C4E9032725
:103AA000C4E90577E761FDF733FB002818BFFDF790
:103AB00025F9B46366622620032100222624FEF73E
:103AC00029F92046FEF714F905B0F0BD90F8423010
:103AD000202B07D100294FF0010318BF002A05D180
:103AE0001846704702231846704700BF002303633F
:103AF000816222218285C285436480F84210016977
:103B0000006819B1C16841F48071C160416941F038
:103B100001014161C16841F02001C1601846704750
:103B200040F2C041C2F20001884218BF704710B590
:103B300040F2E024C2F20004207804F059FD40F283
:103B4000BC20C2F200002178027807A004F064FDD6
:103B5000002340F2C040C2F200002146012223703F
:103B6000BDE81040FFF7B2BF72783A2563202564A4
:103B70000D0A00002DE9F04381B0044690F84100A1
:103B8000202809D1884600294FF0010018BF002ADB
:103B900006D101B0BDE8F083022001B0BDE8F0839A
:103BA0000020606421201D4684F841001646FDF780
:103BB000ADFCA684E684A1680646B1F5805F03D11A
:103BC0002069002800F0948047464FF00008E18CFF
:103BD0002068002900F0928005F101090BE000BF88
:103BE00047B317F8011B4160E18C0139E184E18C96
:103BF000002900F0838001680906F1D4B9F1000FB3
:103C00000AD0EDB1FDF782FC801BA84218D82068CD
:103C100001680906F6D5E3E701680906E0D4016802
:103C200009065CBF01685FEA0161D9D40168090631
:103C3000F2D5D5E738F8021B00276FF35F21D2E7F2
:103C4000206850E8030F216820F4D07041E8030297
:103C5000BAB3206850E8030F216820F4D07041E81F
:103C6000030272B3206850E8030F216820F4D0707B
:103C700041E803022AB3206850E8030F216820F4CA
:103C8000D07041E80302002ADAD11AE0206850E837
:103C9000050F216820F0010041E80502DAB1206833
:103CA00050E8050F216820F0010041E8050292B1BB
:103CB000206850E8050F216820F0010041E8050266
:103CC0004AB1206850E8050F216820F0010041E862
:103CD0000502002ADAD1202084F8410084F842004D
:103CE000002084F84000032001B0BDE8F08300BF4D
:103CF0000027E18C206800297FF46EAF0168490637
:103D00000FD4F5B1691C17D10168490609D40168BF
:103D100049065CBF01685FEA416102D40168490657
:103D2000F2D5202084F84100002001B0BDE8F083E6
:103D3000206800684006F4D4FDF7E8FB801BA84229
:103D4000F6D9206850E8030F216820F4D07041E8CC
:103D50000302EAB3206850E8030F216820F4D07012
:103D600041E80302A2B3206850E8030F216820F461
:103D7000D07041E803025AB3206850E8030F21686D
:103D800020F4D07041E80302002ADAD120E000BF1D
:103D9000206850E8050F216820F0010041E8050285
:103DA000002A98D0206850E8050F216820F0010013
:103DB00041E80502002A3FF48EAF206850E8050F65
:103DC000216820F0010041E80502002A3FF483AF9A
:103DD000206850E8050F216820F0010041E8050245
:103DE000002AD5D177E7000070470000FEE7000009
:103DF0002DE9F04782B0044600689A460B9D0A9E62
:103E00000368914643F48062026002680F4642F400
:103E10008071016020464FF0011100223346009569
:103E200000F032F950B120680068C00544BF4FF47B
:103E300000702064032002B0BDE8F08740F2020861
:103E40002068C0F2010807F0FE07076120464146DE
:103E500032462B4600F0FEF920B1012002B0BDE849
:103E6000F08700BF0020019020682A464169019137
:103E70008069314601900198204600F09FFAB0B960
:103E80002068BAF1010F09D04FEA192101612046DB
:103E900031462A4600F092FA48B920685FFA89F163
:103EA0000161204631462A4600F088FA60B1206C54
:103EB0000428D2D12068016841F40071016001201A
:103EC00002B0BDE8F08700BF2068002201683346D9
:103ED00041F48071016020464FF00111009500F01F
:103EE000D3F800289FD147F0010C276820464146AF
:103EF00032462B46C7F810C002B0BDE8F04700F0CC
:103F0000A9B900002DE9F04383B0044600680F46CC
:103F100001680A9D0B9E41F48071994690460160AC
:103F200020464FF0011100222B46009600F0ACF81D
:103F300050B120680068C00544BF4FF40070206491
:103F4000032003B0BDE8F083206807F0FE010161A3
:103F50000221C0F2010120462A46334600F07AF9D8
:103F600020B1012003B0BDE8F08300BF0020029023
:103F70002068324641690291806929460290029880
:103F8000204600F01BFA58B1206C0428E9D12068C3
:103F9000016841F400710160012003B0BDE8F083C5
:103FA0002068B9F1010F0AD04FEA182101612046BB
:103FB0002946324600F002FA0028E5D120685FFA6F
:103FC00088F10161002003B0BDE8F08370B503689B
:103FD000044653F8140F400711D40E46481C29D04C
:103FE00086BB00BF1868400527D4FDF78FFA236809
:103FF00053F8140F400737D518684007F2D5002052
:1040000070BD00BF18684007F9D41868400514D483
:1040100018684007F3D4186840050ED418684007A4
:10402000EDD41868400508D4186840074FF0000028
:1040300048BF70BD18684005E4D56FF48060186013
:10404000042012E0154603E053F8140F4007D6D4BD
:1040500018684005F1D4FDF759FA401B2368B042B7
:10406000F2D958694007EFD4202000212022216393
:1040700084F83D2084F83E10226C10432064012017
:1040800084F83C1070BD00002DE9F0410546006841
:104090001E46144601F47F0201338FB242D0DDF890
:1040A0001880B2F5803F40F0878040693840C01BDF
:1040B000B0FA80F04009A04240F0C8804EB924E038
:1040C00040693840C01BB0FA80F04009A04240F07F
:1040D000BD80FDF71BFAA0EB08012868B142EFD9BB
:1040E00041693940C91BB1FA81F14909A142E7D1BF
:1040F0009BE000BF40693840C01BB0FA80F0400927
:10410000A0424FF0000040F0A280FDF7FFF92868C0
:1041100041693940C91BB1FA81F14909A142E9D18C
:1041200083E000BFB2F5803F24D100BF4169394030
:10413000C91BB1FA81F14909A14240F08780416968
:104140003940C91BB1FA81F14909A14240F07E8092
:1041500041693940C91BB1FA81F14909A14275D1C0
:1041600041693940C91BB1FA81F14909A142DDD049
:104170006CE000BF81693940C91BB1FA81F149097E
:10418000A14263D181693940C91BB1FA81F1490962
:10419000A1425BD181693940C91BB1FA81F149095A
:1041A000A14253D181693940C91BB1FA81F1490952
:1041B000A142DFD04AE000BF80693840C01BB0FA9E
:1041C00080F04009A04241D146B923E080693840DF
:1041D000C01BB0FA80F04009A04237D1FDF796F934
:1041E000A0EB08012868B142F0D981693940C91BA8
:1041F000B1FA81F14909A142E8D116E0806938405D
:10420000C01BB0FA80F04009A0424FF0000018BF78
:10421000BDE8F081FDF77AF9286881693940C91B4A
:10422000B1FA81F14909A142E8D100202021286397
:1042300085F83D1085F83E00296C41F02001296485
:1042400085F83C000120BDE8F08100BF0020BDE8FA
:10425000F0810000F0B581B0044600681D46436956
:104260008FB203EA0701B94202D1002001B0F0BDCC
:104270004169164601323CD0490512D47EB300BFD5
:10428000FDF744F9411B2068B14203D94169394027
:10429000B9422BD141693940B942E6D0416949055B
:1042A000EED5016841F4007101606FF480614161F5
:1042B000042000212022216384F83D2084F83E1050
:1042C000226C1043206484F83C10012001B0F0BD42
:1042D00041693940B942C8D041694905E1D4FDF787
:1042E00015F9206841693940B942F1D02020E0E752
:1042F00041694905D5D441693940B942B5D04169D0
:104300004905CED441693940B942AED04169490529
:10431000C7D441693940B942A7D041694905C0D4E1
:1043200041693940B942E3D19FE7000070B50446C6
:104330000068154650F8143F5A063DD40E4629B978
:1043400026E000BF50F8141F490635D40168C9069D
:1043500021D4FDF7DBF8411B2068B142F2D9416955
:104360004906EFD400202021206384F83D1084F812
:104370003E00206C40F0200018E000BFFDF7C6F8BA
:10438000206850F8141F4906ECD50168490613D47B
:104390000168C906F2D56FF01001016000202021EC
:1043A000206384F83D1084F83E00206C20640020D7
:1043B00084F83C00012070BD002070BD70B503681A
:1043C000044653F8140F000611D40E46481C29D099
:1043D00086BB00BF1868400527D4FDF797F823680F
:1043E00053F8140F000637D518680006F2D50020E0
:1043F00070BD00BF18680006F9D41868400514D4D1
:1044000018680006F3D4186840050ED41868000632
:10441000EDD41868400508D4186800064FF0000075
:1044200048BF70BD18684005E4D56FF4806018601F
:10443000042012E0154603E053F8140F0006D6D40A
:1044400018684005F1D4FDF761F8401B2368B042BD
:10445000F2D958690006EFD42020002120222163E0
:1044600084F83D2084F83E10226C10432064012023
:1044700084F83C1070BD0000B0B540F27C24C2F25C
:104480000004E588B5F5967F88BFB0BD652D47D39C
:10449000E08904991844E081208A059A0844208222
:1044A000608A1044608240F2D020C2F200000068AE
:1044B0006169FBF7B7FE606140F2D820C2F20000EC
:1044C0000068A169FBF7AEFEA06140F2E420C2F2F1
:1044D00000000068E169FBF7A5FEB5F5967FE06195
:1044E0001ED1B4F90E0041F27B4148430214120977
:1044F00002EBD0702080B4F910004843021502EBA3
:10450000D0706080B4F912004843011501EBD070FF
:10451000A0806069A069E06903A005F095FDE588C9
:10452000681CE080B0BD00BF4D505536303530209E
:10453000646174612063616C6962726174696F6E39
:104540002066696E69736865640D000070B501F0DE
:1045500099FF002808BF70BD0AA40CA511A600BFD2
:10456000C820FCF723FE2046294604F055F801F048
:1045700089FF0146304604F04FF801F083FF002820
:10458000EED170BD25730D0A000000004D70753628
:104590003035305F444D5020496E69742057726F3A
:1045A0006E67210020202025640000002DE9F047DF
:1045B00082B09046894682460DF10203D0203B210D
:1045C000062200F0EBF840F2EC270646C2F20007A4
:1045D00070B9BDF8020000BA000C3880BDF80400C4
:1045E00000BA000C7880BDF8060000BA000CB88054
:1045F000B7F90000FCF7C7F849F69A1449F699157F
:10460000C9F69914C3F6D97522462B46FBF779FFF4
:10461000FCF7E3F83880B7F90200FCF7B4F822465B
:104620002B46FBF76EFFFCF7D8F87880B7F904004B
:10463000FCF7A9F822462B46FBF763FFFCF7CDF801
:10464000B880B7F90000FCF790F8CAF80000B7F995
:104650000200FCF78AF8C9F80000B7F90400FCF77B
:1046600084F801463046C8F8001002B0BDE8F08773
:104670002DE9F04F87B002AB07C30DF11603D02030
:104680004321062200F08AF8814618B10026002551
:10469000002010E0BDF81600BDF81840BDF81A70F3
:1046A000C0BAFCF762F80646E0BAFCF75EF80546C9
:1046B000F8BAFCF75AF840F2480B40F27C2A019015
:1046C000C2F2000BC2F2000ADBF80040BAF908009F
:1046D000FCF74BF8DBF8001080464FF07E50FBF7FC
:1046E000F3FD4146FBF7F6FD074630462146FBF752
:1046F000F1FD3946FBF796FDFCF756F8AAF80800DD
:104700000646DBF80040BAF90A00FCF72EF8DBF8A1
:10471000001007464FF07E50FBF7D6FD3946FBF7F9
:10472000D9FD074628462146FBF7D4FD3946FBF75D
:1047300079FDFCF739F8AAF80A000546DBF80040D5
:10474000BAF90C00FCF711F8DBF8001007464FF03F
:104750007E50FBF7B9FD3946FBF7BCFD07460198D3
:104760002146FBF7B7FD3946FBF75CFDFCF71CF86B
:10477000AAF80C00BAF80010029A711A1180BAF85F
:104780000210039A691A1180BAF80410049A411AA7
:104790004846118007B0BDE8F08F000080B584B0B6
:1047A00094460A46014640F6FF70029040F24030BF
:1047B0000093C2F200000123CDF804C0FCF75EFFB5
:1047C000002004B080BD000080B584B094460A4645
:1047D000014640F6FF70029040F240300093C2F272
:1047E00000000123CDF804C0FDF7ECF8002004B070
:1047F00080BD000080B582B041F21400C4F2020016
:104800000168002241F0010101600068032100F00D
:104810000100019001981120FDF77CFA112002B0EF
:10482000BDE88040FDF764BA2DE9F04786B04FF04F
:10483000000941F21800CDE90499CDE90299C4F2CA
:104840000200016840F6000541F0100101600168B6
:10485000C4F2010501F010010191019901680022E3
:1048600041F0200101600168C32601F0200101919F
:104870000199016841F004010160016801F004013F
:1048800001910199016841F0080101600068C321AC
:1048900000F00800019001982846FCF731FE05F56C
:1048A000806420464FF48C7100224FF48C78FCF722
:1048B00027FE029602AE01274FF0020A2846314633
:1048C000CDE90379CDF814A0FCF726FD4FF40040A4
:1048D00002900020C1F22100CDE9030728463146AD
:1048E000FCF71AFD20463146CDE90287CDE9049A4E
:1048F000FCF712FD282002210022FDF70BFA2820E8
:10490000FDF7F6F906B0BDE8F087000080B540F28B
:10491000403045F60001C2F20000C4F2000148F246
:10492000A06200234FF4804CC0F2010280E80E0028
:10493000C0E9033CC0E90533C0E90733FCF7ECFDEF
:10494000002808BF80BDBDE88040FCF7D7B9000053
:1049500080B540F2943043F20001C2F20000C4F28C
:10496000000100224FF47A7380E80E00FDF70EF983
:10497000002808BF80BDBDE88040FCF7BFB900003B
:1049800010B58AB040F2A03042F600420021C2F2D7
:104990000000C4F20102472340F2E7340991CDE957
:1049A0000711CDE90411CDE90211CDE90011C0E9EB
:1049B0000023C0E90214C0E904118161FDF752FD32
:1049C000002818BFFCF79AF94FF48050069040F287
:1049D000A030C2F2000006A9FDF7E0FE002818BFD3
:1049E000FCF78CF940F2A030C2F20000FEF778F834
:1049F000002818BFFCF782F940F2A0300024C2F270
:104A0000000004A9CDE90444FDF7E0FC002818BF2C
:104A1000FCF774F90120CDE9010440F2A030C2F2A4
:104A200000006946002200940394FDF789FF0028E6
:104A300018BFFCF763F90AB010BD000080B586B05E
:104A400040F2E8300021C2F200004FF080424723DC
:104A50004FF6FF7C0591CDE90311CDE90011C0E9C6
:104A60000023C0E9021C01618161FDF7FBFC002805
:104A700018BFFCF743F94FF48050029040F2E83041
:104A8000C2F2000002A9FDF789FE002818BFFCF75A
:104A900035F940F2E830C2F200006946FDF796FCB5
:104AA000002818BFFCF72AF906B080BDB0B598B051
:104AB00040F230400021C2F2000040F2004541F6D1
:104AC0001F431291CDE910110D91CDE90B11CDE9E4
:104AD0000911CDE90711CDE90511CDE90311CDE9A2
:104AE0000111C4F200050A22C0E90213016180210C
:104AF000C0E900528161FDF7B5FC002818BFFCF742
:104B0000FDF84FF480500F9040F23040C2F20000A8
:104B10000FA9FDF743FE002818BFFCF7EFF840F29D
:104B20003040C2F20000FEF755FA002818BFFCF72B
:104B3000E5F840F23040C2F20000FDF7D1FF002856
:104B400018BFFCF7DBF840F230400024C2F200004E
:104B50000CA9CDE90C44FDF739FC002818BFFCF77F
:104B6000CDF86020CDE9050440F23040C2F20000EB
:104B700005A9002207940994FEF7FEF8002818BF43
:104B8000FCF7BCF840F23040C2F2000005A9042254
:104B9000FEF7F2F8002818BFFCF7B0F8002001215A
:104BA0000190CDE90210049040F23040C2F20000C2
:104BB00001A90822FDF7C4FE002818BFFCF79EF8E3
:104BC00040F23044C2F2000405A920460C22FEF750
:104BD000D3F8002818BFFCF791F8206840F60001D0
:104BE000C4F2000188424FF00001CDE91611CDE971
:104BF000141129D0A84240D141F21800C4F2020099
:104C0000016841F010010160006814A900F0100073
:104C1000139013984FF43070149002201590179051
:104C200040F60040C4F2010000F58060FCF774FB20
:104C30000420C4F20100016841F0E06141F44061E8
:104C4000016018B0B0BD00BF41F21800C4F202000C
:104C5000016841F008010160006814A900F0080033
:104C600013901398C020149002201590179040F6CE
:104C70000040C4F20100FCF74FFB18B0B0BD0000CB
:104C800070B598B040F278400021C2F2000040F6C2
:104C9000000541F61F431291CDE910110D91CDE9A8
:104CA0000B11CDE90911CDE90711CDE90511CDE9C8
:104CB0000311CDE90111C4F200050A22C0E9021373
:104CC00001618021C0E900528161FDF7CBFB002822
:104CD00018BFFCF713F84FF480500F9040F2784063
:104CE000C2F200000FA9FDF759FD002818BFFCF71C
:104CF00005F840F27840C2F20000FEF76BF9002898
:104D000018BFFBF7FBFF40F27840C2F20000FDF74E
:104D1000E7FE002818BFFBF7F1FF40F278400024BF
:104D2000C2F200000CA9CDE90C44FDF74FFB0028AE
:104D300018BFFBF7E3FF6020CDE9050440F278409F
:104D4000C2F2000005A9002207940994FEF714F8A6
:104D5000002818BFFBF7D2FF40F27840C2F20000F3
:104D600005A90422FEF708F8002818BFFBF7C6FFC4
:104D700040F2784400260120C2F20004CDE9020688
:104D800001A920460C2201960496FDF7D9FD0028C2
:104D900018BFFBF7B3FF2068CDE91666A842159649
:104DA00014962DD040F20041C4F20001884240D157
:104DB00041F21800C4F20200016841F010010160E4
:104DC000006814A900F01000139013984FF430708D
:104DD000149002201590179040F60040C4F2010094
:104DE00000F58060FCF798FA0420C4F20100016825
:104DF00041F0E06141F44061016018B070BD00BF56
:104E000041F21800C4F20200016841F0080101609B
:104E1000006814A900F0080013901398C0201490A3
:104E200002201590179040F60040C4F20100FCF7F4
:104E300073FA18B070BD000080B540F2C04043F670
:104E40000001C2F20000C4F2010100234FF00C0C7B
:104E50004FF4E13280E80E00C0E90333C0E905C336
:104E6000C361FEF725FD002808BF80BDBDE8804076
:104E7000FBF744BF80B540F2085044F20041C2F253
:104E80000000C4F2000100234FF00C0C4FF4E1329B
:104E900080E80E00C0E90333C0E905C3C361FEF733
:104EA00007FD002808BF80BDBDE88040FBF726BF96
:104EB000FEE70000B0B540F23044C2F200042068C2
:104EC000002140F2784541638163C2F20005286801
:104ED000416381632046FEF711F920460421FEF765
:104EE0000DF928460021FEF709F928460421BDE8FE
:104EF000B040FEF703B90000B0F5E15F4FF4E15CAC
:104F0000A8BF6046B1F5E15FA8BF6146B2F5E15FB9
:104F1000A8BF6246B3F5E15FB8BF9C4640F230439C
:104F2000C2F200031B6820EAE07021EAE1715863D5
:104F300040F278409963C2F20000006822EAE2720F
:104F40002CEAEC714263816370470000FEE70000C9
:104F50002DE9F047044608461146FBF7B5F92169EB
:104F60008246FBF75FF90021C4F27A410646FBF75F
:104F7000C5FB002100281CBF0026C4F27A46CCF2F3
:104F80007A413046FBF7ACFB00281CBF0026CCF270
:104F90007A4694E8820350462661FBF79BF9054662
:104FA000606138463146FBF795F90646A0615046E8
:104FB0004946FBF789F901464046FBF78BF907465E
:104FC000E06128463146FBF72DF93946FBF72AF90F
:104FD000256A06462946C4F80CA0FBF78FFB00287B
:104FE00018BF2E463046FBF717FC804628460F4672
:104FF000FBF712FC054681F00044404639462A463C
:105000002346FBF797FB074628462146FBF717FC8C
:10501000002F08BF3046BDE8F08700007047000051
:1050200070470000FCF7E6BD7047000040F2A0307A
:10503000C2F20000FDF7E6BD40F2A030C2F200006F
:10504000FDF7E0BD40F27840C2F20000FDF7DABDA6
:10505000F0B581B040F2F004C2F200042088D8B16B
:1050600040F25001C2F2000101F1080500260027BC
:1050700005E000BF0137874205F110050CD215F895
:10508000081C0129F6D129790029F3D12868804725
:10509000208805F8086CEDE701B0F0BD406A0021FA
:1050A000C185C184FEF74AB981B090F84210222927
:1050B00021D183680246B3F5805F09D152F8281FD9
:1050C00052F8183C002B63D003685B680AE000BF0D
:1050D00052F8281F13B90369002BF5D003685B68E9
:1050E00003F07F030B70116801311160C18D01392C
:1050F0000A04C18502D001B0704700BF0168CA68C8
:1051000022F02002CA60CA6822F48072CA604A692A
:1051100022F001024A61202180F8421000214163FF
:10512000026B012A3CD10163016851E8031F026848
:1051300021F0100142E80313DBB1016851E8031FBD
:10514000026821F0100142E8031393B1016851E8AD
:10515000031F026821F0100142E803134BB10168FC
:1051600051E8031F026821F0100142E80313002BED
:10517000DAD101680A68D20606D5002200920A68D0
:105180000092496800910099818D01B0FEF7D4B872
:10519000026852686FF35F2221F8022B8162A5E753
:1051A00001B0FEF7BDBC000040F2C040C2F20000FA
:1051B000FEF7C6B840F20850C2F20000FEF7C0B8D1
:1051C000FEE7000080B540F25450C2F200000268D1
:1051D00040F2A810C2F200000021FFF7B9FE40F231
:1051E0005051C2F200010A68014640F28410C2F236
:1051F0000000FFF7ADFEFBF7D7FA40F2B421C2F290
:105200000001086080BD0000F0B587B004464CF690
:105210000220C0F6E3100DF10605CDF80600682067
:1052200004212A4602F0D2FC14F040014FF0A30002
:105230006FF03F018DF8060008BF6FF05C016FF062
:1052400037026FF03D0308BF6FF05C0208BF6FF0DC
:105250005C038DF8071014F4C0716FF03B018DF8FA
:1052600008208DF8093008BF6FF05C016FF0330241
:105270006FF0390308BF6FF05C0208BF6FF05C038A
:105280008DF80A104AF2A3318DF80B20ADF80D10FD
:105290008DF80F0040F6A7200A212A468DF80C3021
:1052A00002F094FC2020A60708BF6FF027008DF8BD
:1052B000060040F6B62001212A4602F087FCA0062F
:1052C0000CD4C720069048F6B000CCF2C35005902D
:1052D0004AF6B820CAF6AA200BE000BF5D2006906F
:1052E00049F6B400C3F20D5005904AF6B820C8F64E
:1052F000B350049004AA4FF49760092102F066FCB1
:1053000014F4C07F25D06FF04D016FF0740214F4D7
:10531000807008BF6FF04F0108BF6FF07F026FF021
:1053200049036FF0640508BF6FF04B03002808BF06
:105330006FF06F058DF806108DF807200DF106024D
:1053400040F6A22004218DF808308DF8095002F0B3
:105350003DFCE00708D1D8208DF806000DF10602CB
:105360004FF40B60012150E0F8208DF806000DF19C
:1053700006024FF40B60012102F028FC0720FA21FD
:1053800000F0F6FA3F208DF8100004AA4FF4A47044
:10539000012102F01BFC00208DF8100004AA40F24D
:1053A0004F10012102F012FC4FF4A050ADF8100094
:1053B00004AA4FF4EF70022102F008FC4FF4C84039
:1053C000ADF8100004AA4FF4ED70022102F0FEFBCC
:1053D00048F60060C9F2F900049004AA4FF4AE70D8
:1053E000042102F0F3FB4FF40060ADF8100004AAB2
:1053F0004FF4AD70022102F0E9FB4FF40070ADF8FC
:10540000100004AA4FF4AC70022102F0DFFB6FF031
:105410002600002E58BF6FF027008DF806000DF112
:10542000060240F23D70012102F0D0FB600752BF3E
:105430004FF08B304CF2C020CCF2C460049004AA30
:1054400040F69820042102F0C1FB01F0D3FBE006F6
:1054500052BF4FF0A33042F62000C3F63000049054
:1054600004AA40F69E20042102F0B0FB01F0C2FB2A
:1054700040F2D01744F00800C2F200076506B88079
:1054800001F0B8FB062000EAE57114F4C07F18BFF4
:10549000063114F0140F18BF1031002E18BF04315C
:1054A0000020397007B0F0BD4AF26821C0F6000153
:1054B00040F6F6304FF48062C82301F081B9000055
:1054C0002DE9F04F89B040F2D0191446DDE912B24F
:1054D000C2F200090F468046002199F800000DF144
:1054E000040AABF8001051461E4601F023FB28B118
:1054F0004FF0FF3009B0BDE8F08F00BFB9F804C02D
:105500001CF0140F50D09DF80520B6469DF80410ED
:10551000BDF8066012049DF8095042EA016132BAF2
:105520009DF8083041EA1242BDF80A6022602A0460
:1055300042EA036233BA42EA134363609DF80D30D6
:105540009DF80C60BDF80E501B0443EA06632EBAAA
:1055500043EA16461214A6609DF8116009145243DE
:105560009DF8105001FB012136041A1446EA056625
:1055700002FB02113214BDF8120002FB021100BA44
:1055800001F1714146EA1040B1F1007FE06069D855
:10559000BBF80000102140F480707646ABF80000A4
:1055A0005FEA4C6004D420E000215FEA4C601CD527
:1055B0000AEB01001AF80120437834468678C57852
:1055C00090F804E0407943EA02223A8045EA062254
:1055D00040EA0E207A80B880BBF80000264641F0F1
:1055E000060140F00800ABF800001CF4C07F18D0A2
:1055F0003AF801000AEB010200BA5388000CA8F83F
:10560000000018BA9288000CA8F8020010BA000C2A
:10561000A8F80400BBF80000063140F07000ABF8B9
:1056200000005FEA8C7016D00AEB01056878EC7810
:10563000C10709D0D9F8082032B104F00700411C95
:10564000C4F3C20090476878000704D5D9F80C105D
:1056500009B1A0098847304600F0D2FD002009B00A
:10566000BDE8F08F01F0C6FA0020ABF800004FF063
:10567000FF3009B0BDE8F08F10B584B004460DF1DD
:10568000020000F09BFF40F2F420C2F2000000880C
:10569000BDF802C000F00302430754F822204FF087
:1056A0000C0348BF524203EA50038106E358C0F39B
:1056B000811148BF5B4254F82110C00548BF4942E0
:1056C0004FEACC3080FB02C480FB03E280FB010187
:1056D0004FEA9C73800F43EA840C4FEA9E7340EAC2
:1056E000810EA00D8DF80400A00B8DF80500A00917
:1056F0008DF80600900D8DF80800900B8DF80900CC
:1057000090098DF80A00880D8DF80C00880B8DF833
:105710000D00880943EA82038DF80E0001AA4FF4B8
:1057200025700C218DF807C08DF80B308DF80FE037
:1057300002F04CFA04B010BD10B586B04AF6BB7149
:10574000CDF6DF7105914FF2AA11CDF6DF7104910C
:105750004FF2FE21CCF2AB41C828039118D8044681
:10576000C0B2C821B1FBF0F0002101388DF804105F
:105770008DF8050001AA40F21620022102F026FA57
:1057800030B903AA40F6C1200C2102F01FFA18B16B
:105790004FF0FF3006B010BD40F2F820C2F200001A
:1057A0000480002006B010BDF0B581B040F2F421B5
:1057B000C2F200010E880C2306F003014EF20934F8
:1057C00050F8211003EA5603C0F2CA24720748BFFA
:1057D0004942C758C6F3811381FB041250F8235085
:1057E000F0054FEA91704FEA925148BF6D428DF833
:1057F0000010910B40EA82008DF8011091098DF89C
:1058000002108DF803006A464FF47470042102F010
:10581000DDF9E0B9B00648BF7F42A7FB0401FA17E3
:1058200002FB0411800F8A0D40EA81008DF80020F0
:105830008A0B89098DF801208DF802108DF803007C
:105840006A464FF47570042102F0C0F920B14FF0A0
:10585000FF3001B0F0BD00BF85FB0401800F40EABE
:105860008100010E8DF80010010C8DF80110010A65
:105870008DF802108DF803006A464FF4767004210B
:1058800002F0A4F901B0F0BDB0B582B005464AF20D
:105890003321C0F60001C5F3C10300F00300CC5C66
:1058A0000A5C8DF805404AF230248DF80420C5F3D7
:1058B0008112C0F60004895C205C8DF806108DF81A
:1058C0000000E05CA15C8DF801008DF8021001AAD7
:1058D00040F22640032102F079F950BB6A4640F2BB
:1058E0002A40032102F072F918BB45F23660C0F27B
:1058F0007600019044F22660C0F2660069070090CD
:105900001CD4A80622D4E80505D577208DF806001A
:1059100067208DF8020001AA4FF48860032102F08D
:1059200055F930B96A4640F23140032102F04EF990
:10593000B0B14FF0FF3002B0B0BD00BF37208DF8DE
:10594000040027208DF80000A806DCD557208DF82C
:10595000050047208DF80100E805D6D4DBE700BF3D
:1059600040F2F420C2F200000580002002B0B0BD79
:10597000F0B583B00446B1F5C86F4FF0FF3055D88D
:1059800014F0070252D00846FAF7F8FE0021C4F2DC
:105990004831FAF7D1FC05460DF1070000F0F2FDA1
:1059A0009DF8070002384FEA7002072A4FF0FF30D7
:1059B0003CD80026C4F240664FF08D41DFE802F08B
:1059C0001504360A363636100026C4F2C0564FF09B
:1059D0008C410AE00026C4F240564FF08B4104E0AF
:1059E0000026C4F2C0464FF08A412846FAF772FCFE
:1059F000074628463146FAF76DFCFAF7D5FE06460B
:105A00003846FAF7D1FE010A8DF808108DF8090022
:105A1000300A02A98D1C8DF80A00E0078DF80B6092
:105A200006D1A00714D4600722D4002003B0F0BD33
:105A300002AA4FF4EA70022102F0C8F838BB4FF412
:105A4000927002212A4602F0C1F800BBE9E700BFCC
:105A500002AA4FF4EC70022102F0B8F8B8B94FF482
:105A6000947002212A4602F0B1F880B9DBE700BF4A
:105A700002AA4FF4EE70022102F0A8F838B94FF4F0
:105A8000967002212A4602F0A1F80028CDD04FF0EE
:105A9000FF3003B0F0BD000080B582B0019040F24D
:105AA000C040C2F2000001A901224FF0FF33FEF70F
:105AB00061F8019802B080BD40F2BC20C2F2000043
:105AC0000078012816D140F2C02040F2C42140F2F3
:105AD000C82240F2CC23C2F20000C2F20001C2F29E
